:1010000080330020592F0000F19A0000452F000086
:10101000452F0000452F0000452F00000000000074
:10102000000000000000000000000000213100006E
:10103000452F000000000000ED300000452F0000AB
:101040001133000011330000113300001133000090
:101050001133000011330000113300001133000080
:101060001133000011330000113300001133000070
:101070001133000011330000113300001133000060
:101080001133000011330000113300001133000050
:101090001133000011330000113300001133000040
:1010A0001133000011330000113300001133000030
:1010B0001133000011330000113300001133000020
:1010C0001133000011330000113300001133000010
:1010D0001133000011330000113300001133000000
:1010E00011330000113300001133000011330000F0
:1010F00011330000113300001133000011330000E0
:1011000053B94AB9002908BF00281CBF4FF0FF316E
:101110004FF0FF3000F00CB8ADF1080C6DE904CED3
:1011200000F008F8DDF804E0DDE9022304B07047C0
:10113000704700BF2DE9F04786468C460846089E5A
:10114000154674461946002B40F0C2808542B2FA1B
:1011500082F245D94AB1C2F1200300FA02FC2EFA0C
:1011600003F3954043EA0C0C94404FEA154EA8B2A5
:10117000BCFBFEF8230C0EFB18CC08FB00F943EA7D
:101180000C43994528D9EB1808F1FF3704D299454B
:1011900002D9A8F102072B44A3EB0903A4B2B3FBC5
:1011A000FEFC0EFB1C330CFB00F044EA0344A0429F
:1011B00014D92C190CF1FF3304D2A04202D9ACF19E
:1011C00002032C44241A43EA07401EB1D4400023F2
:1011D00034607360BDE8F0874746DDE76346F1E7BA
:1011E00092BB431B01214FEA154EAFB2B3FBFEFC8D
:1011F000200C0EFB1C330CFB07F840EA0343984518
:1012000062D9EB180CF1FF3004D2984502D9ACF149
:1012100002002B44A3EB0803A4B2B3FBFEFC0EFBBD
:101220001C330CFB07F744EA0344A7424ED92C19A0
:101230000CF1FF3304D2A74202D9ACF102032C44D3
:10124000E41B43EA0040C0E7C2F1200320FA03F1A7
:10125000954090402EFA03F303434FEA154EAFB288
:10126000B1FBFEFC0EFB1C10190C0CFB07F841EA4D
:101270000041884504FA02F422D969180CF1FF30C4
:1012800004D2884502D9ACF102002944A1EB08013F
:101290009BB2B1FBFEFC0EFB1C110CFB07F743EAF3
:1012A00001439F420ED9EB180CF1FF3104D29F424B
:1012B00002D9ACF102012B44DB1B41EA004192E769
:1012C0006046E3E76146F7E76046A3E76346B7E7B2
:1012D000834206D916B9002108467BE7C6E900E03B
:1012E000F9E7B3FA83F78FB9834201D3724508D87F
:1012F000BEEB020460EB030301209C461EB90021F3
:1013000068E73846FAE7C6E9004CF8E7C7F1200C71
:10131000BB4022FA0CF41C432EFA0CF120FA0CF319
:10132000B84001434FEA14490EFA07F5B3FBF9F848
:101330001FFA84FE09FB18300B0C08FB0EFA43EA77
:1013400000439A4502FA07F240D9E31808F1FF304A
:1013500004D29A4502D9A8F102002344A3EB0A0360
:1013600089B2B3FBF9F809FB183308FB0EFE41EA1A
:1013700003418E452CD9611808F1FF3304D28E4504
:1013800002D9A8F10203214443EA0040A0FB0298DD
:10139000A1EB0E014145CE46434602D306D14D4551
:1013A00004D2B9EB020E68EB04030138002EA6D07C
:1013B000B5EB0E0261EB030101FA0CFC22FA07F314
:1013C0004CEA0303F940C6E9003198E74046C5E717
:1013D0004346D9E7034613F8012B002AFBD1181A1C
:1013E0000138704770B5002000F094FD08B100206E
:1013F00070BD064611480AF044F80028F7D04FF4B3
:10140000D0110F4807F037FC0028F0DB3546022DDD
:10141000FCD80B4807F03AFC0028E8DB094B53F8EE
:101420002540642303FB04F422460749074807F0DC
:101430008BF9204607F034FC0135E8E720C10000B5
:1014400080C3000040C3000034C3000078C3000024
:1014500008B5024B1B68984708BD00BFB0000020CC
:1014600000B585B00A4600230093019302930393CD
:1014700002238DF80230044B01930146684607F0C1
:1014800075F905B05DF804FB51140000014B1860BC
:10149000704700BFB000002080B505460E461746D5
:1014A000984606F00DFD03460AF0DCFD0446DFF821
:1014B000189049F80030424639463046A84754F85B
:1014C000090001F0B7FD00BF080000002DE9F0435E
:1014D00083B0044608461546238B13F0080F05D148
:1014E00003F0070600230093019354E0012909D07B
:1014F00043F02003238385F31188BFF36F8F03B07C
:10150000BDE8F08343F010032383F4E7204607F09F
:1015100040FE42E0D4F814904A466946204607F05F
:1015200051FE4FF00008238B03F00707B74269D044
:10153000A268002A66D0012243F00803238385F3C2
:101540001188BFF36F8F002A64D1009B2BB14B46EB
:101550003A466946204607F0AEFEB8F1000F02D0C9
:1015600034492046C047EFF31185202383F31288C6
:10157000BFF36F8F238B23F008032383238B13F098
:10158000100F4DD023F0100323830120268B06F08B
:1015900007060028AFD00228B8D00028ABD0013809
:1015A00004282BD801A353F820F000BF1515000024
:1015B000FD150000C1150000D5150000E91500005B
:1015C0002369D3F800800621204607F0B8FD4FF0CC
:1015D0000009A8E72369D3F804800421204607F016
:1015E000AEFD4FF000099EE72369D3F8088005217E
:1015F000204607F0A4FD4FF0000994E74FF00008E3
:10160000C14690E7009A0AB1002295E7B8F1000FB1
:1016100092D1B3E74A463946204607F098FD94E751
:1016200013F0200F04D023F0200323830220ADE722
:101630000020ABE7E5920000014B036000207047FB
:1016400088C30000072801D900207047024B0344DB
:1016500083F8BB100120704798080020072801D9A3
:1016600000207047024B034493F8BB00704700BF53
:101670009808002010B50378C3F341130A33064CD1
:1016800054F8233023B19847002803DB012010BD14
:101690000020FCE70020FAE7980800200A30024BFF
:1016A00043F82010704700BF98080020014B586293
:1016B000704700BF98080020136800221A705A7003
:1016C00001221A70064A92F8C3203AB1022242F06F
:1016D00001021A7002230B60012070470022F6E716
:1016E0009808002030B545884FEA152EAEF1040366
:1016F000DBB2012B21D9EDB2BEF1070F1FD8114B80
:101700005B6A002400E00344187840B193F801C0FC
:10171000F445F8D1A54201D00134F4E7012068B1C5
:101720001360BEF1020F02D01B780B6006E09A78BE
:10173000DB7842EA03230B6000E0002030BD00208C
:10174000FCE700BF9808002038B50C460D4B5B6ADB
:10175000156800E013441A788AB193F801C0BCF10F
:10176000040FF7D193F802C0B0F804E0F445F1D1CA
:101770006046FFF773FF28700120206000E0002022
:1017800038BD00BF98080020034B93F8BA0000381A
:1017900018BF0120704700BF98080020074B5B6A04
:1017A00000E013441A783AB159780229F9D119792D
:1017B0008142F6D901207047002070479808002028
:1017C00030F0800318D01049104B994219D210B450
:1017D00003E024310D4B99420CD20C6A00230A7F9E
:1017E0009A42F6D904EBC3021279824206D0013341
:1017F000DBB2F4E7002002E001207047012010BCBA
:1018000070470020704700BFB0030020D4030020C1
:10181000014B9861704700BF98080020014BD861C8
:10182000704700BF98080020F8B506460A4D0B4BDC
:101830009D420FD22F6A002401E00134E4B22B7FD5
:10184000A34205D907EBC400B0470028F5DAF8BD7C
:101850002435ECE70020FAE7B0030020D403002091
:1018600038B50C4B00E024330B4CA3420ED25C681D
:101870000A4D6D6AAC42F6D31D69002DF3D094F881
:1018800002C00479A445EED1A84701E06FF08500BD
:1018900038BD00BFB0030020D4030020980800200A
:1018A0002DE9F04106460F469046114C05E04246B0
:1018B00039463046A84719E024340E4B9C4213D2D7
:1018C00063680D4D6D6AAB42F6D3A569002DF3D068
:1018D000997832799142EAD05B79012BECD142467A
:1018E00039463046A847E7E76FF08500BDE8F0814C
:1018F000B0030020D403002098080020F8B5074664
:101900000E4615460A4C00E024340A4B9C420AD28B
:101910006369002BF8D02A4631463846984703467B
:101920000028F1D101E06FF085031846F8BD00BF33
:10193000B0030020D403002010B5044608F0A0FB3B
:1019400010F1780F00D050B9204607F07BFE044A12
:10195000D2F8C43023EA0003C2F8C430002010BD1E
:101960009808002038B50446007908F089FB054640
:10197000207907F067FE044AD2F8C43023EA000356
:10198000C2F8C430284638BD9808002070B582B02F
:101990000D4604798DF807402046FFF711FF0646F3
:1019A00030B134F0800306D0FFF7EEFE18B90646DA
:1019B000304602B070BD5DB1204602F0BBF90A4B63
:1019C000DB69002BF4D00DF1070108209847EFE701
:1019D000204602F0DFF9044BDB69002BE8D00DF163
:1019E000070109209847E3E79808002030B583B045
:1019F000044680788DF80000A388ADF80230E378C3
:101A000003F003038DF8043007F01CFE0546174B66
:101A1000D3F8C430034219D1684602F063F910F1DB
:101A2000780F00D0E8B99DF8000002F0FDF910F140
:101A3000780F00D0B8B90D4B012083F8B900D3F866
:101A4000C4201543C3F8C45003B030BD204607F08E
:101A50000CFE09F03CFF0028DED1962006F0F4F9D8
:101A6000DAE70020F0E70020EEE700BF980800204A
:101A70002DE9F8430646194B5C6A0027FF25A84666
:101A8000B94607E094F80380A578B088854212D063
:101A900023781C442378C3B16378042BF2D0052B40
:101AA000F6D1B3889D42F3D1B2784146204607F083
:101AB000F1FD0746ECE771888845E9D1C9B2C0B2AB
:101AC000FFF7C0FD0746A146E2E7044BDB6913B10F
:101AD0004946072098473846BDE8F8839808002013
:101AE000024B00221A605A60704700BF5309002061
:101AF0002DE9F0410546224B5C6A43881BB1002763
:101B0000FF26B04610E0FFF7EBFF6A881C4B83F816
:101B1000BA20DB6913B11B490320984701271EE057
:101B200094F8038023781C442378BBB16378042B9A
:101B3000F6D0052B07D0022BF4D166796B889E4234
:101B4000F0D10127EEE76B889E42EBD1B8F1000F90
:101B5000E8D12046FFF74AFF0746E3E717B93846C2
:101B6000BDE8F081FFF7BCFF6A88054B83F8BA2017
:101B7000DB69002BF3D0034903209847EFE700BF50
:101B8000980800205209002010B5146890F9003020
:101B9000002B0ADB4378013B082B3AD8DFE803F03F
:101BA00024392F391A39393921004378062B07D0C7
:101BB000082B08D00BB1002010BDFFF77DFDFBE71F
:101BC000FFF790FDF8E7144B93F8BA30237001202B
:101BD0000860F1E7807802F073F8B0FA80F040090D
:101BE000EAE7FFF785FFE7E74388012B01D00020F4
:101BF000E2E7094B002283F8C3200120DCE7438899
:101C0000012B01D00020D7E70120034B83F8C3004C
:101C1000D2E70020D0E700BF9808002070B5054645
:101C20000E46042803D0012803D0134C11E0FFF71F
:101C300057FF124B93F8B930002BF6D000F046FC5A
:101C40000F48FFF7F1FD0D4B002283F8B920ECE7B8
:101C500024340C4B9C4207D2E368002BF8D0324668
:101C6000294620469847F3E7044B1B6A13B13146D7
:101C70002846984770BD00BFB00300209808002098
:101C800065190000D403002070B504460D461646C1
:101C9000184B9B690BB1984748B1237803F01F0399
:101CA000012B0DD0022B13D013B16FF0150070BDB6
:101CB000324629462046FFF767FF88B10020F6E745
:101CC00032462946204607F0EEFC60B10020EEE7E0
:101CD00032462946204607F02EFD38B10020E6E7BF
:101CE0006FF01500E3E76FF01500E0E76FF0150007
:101CF000DDE700BF9808002070B50E4E0E4B9E42E7
:101D000015D2356A002401E00134E4B2337F9C42ED
:101D10000BD205EBC40355F83410187902F0EEF934
:101D20000028F1D04FF0FF3070BD2436E6E70020E8
:101D3000FAE700BFB0030020D403002010B582B042
:101D4000154B1B7DF3B9144CE268019201ABA168FD
:101D5000802007F013FDA368019A1344A360E36891
:101D60009B1AE360B3B9AAB1E28823699A4211DDF4
:101D700094F8C82093FBF2F102FB113353B901220E
:101D8000227507E00021044B19750B460A46802096
:101D900002F078F802B010BD9808002000B585B0B8
:101DA00000230393002840F0858019B3494BDA687B
:101DB000002A67DD03AB47498968002008F079F9FC
:101DC00000286CDB434A936803990B449360D36803
:101DD0005B1AD360002B6FD1104602F1380342F832
:101DE000083F00F11001FFF745FC00285ED0FFF727
:101DF000A5FF61E0082201A908F05BF900282EDBAD
:101E00009DF80400334B18709DF805205A70BDF8FA
:101E100006205A80BDF808209A80BDF80A10D980A3
:101E200003F138029A6000221A751A61DA6010F024
:101E3000800F02D1802916D8E1B9274A02F10801A2
:101E4000A2F10800FFF716FCC0B1224BDA8819692D
:101E50008A42A8BF0A46DA60FFF770FF2CE08020B4
:101E600001F068FF28E0802001F064FF002001F00D
:101E700061FF21E0174B1961D9601DE0802001F05E
:101E800059FF19E003AB002212498968104608F097
:101E900010F9002810DA802001F04CFF0CE08020BF
:101EA00001F048FF002001F045FF05E0802001F02F
:101EB00041FF01E0802802D005B05DF804FB054B2E
:101EC000DB681BB9034B1B7D002BF5D0FFF736FFFA
:101ED000F2E700BF98080020A008002008B5FFF72F
:101EE000E5FB08490020FFF7D9FB07490120FFF770
:101EF000D5FB06490220FFF7D1FB0548FFF788FC18
:101F0000002008BD891C000061180000FD180000B9
:101F1000A118000070B582B005464FF0FF324FF0B7
:101F2000FF33454805F01EF9444B93F8B830002BB9
:101F300073D1424B5B6A002B64D0012007F093FB06
:101F4000041E6CDB3D4B5E6A1D623D4C2046FFF774
:101F500065FC204602F0E6F801F076FE041E5EDB2A
:101F600000F0E0FA041E5ADB7378012B5DD1F3799F
:101F7000002B5DD0314A82F8C830ADF80230002322
:101F80008DF804308DF80030684601F0ABFE041E79
:101F900045DB80238DF80030684601F0A3FE041E67
:101FA0003DDB2849002002F0A9F8041E37DB254953
:101FB000802002F0A3F8041E31DBFFF79DFE041E13
:101FC0002DDB002001F030FF041E28DB002007F08D
:101FD00039FB1A4AD2F8C4300343C2F8C430802017
:101FE00001F022FF041E1ADB802007F02BFB134BAD
:101FF000D3F8C4200243C3F8C420012283F8B820D8
:1020000000240CE000F0EAF8FFF768FF0B4B5B6A76
:10201000002B92D14FF0FF3401E06FF077040648B7
:1020200005F020F9204602B070BD6FF01504F6E708
:102030006FF01504F3E700BFD802002098080020D5
:102040001D1C00009D1D00000246064800E02430D3
:10205000054B984203D243689342F8D100E0002038
:10206000704700BFB0030020D403002010B58AB031
:102070000DF1040C1D4C0FCCACE80F0023688CF85C
:10208000003000230693079308930993184A1360BE
:1020900053609360D3601382102106A808F051FAB0
:1020A000002820DD0828B8BF0820A0F1080C002275
:1020B00017E00CEB020328336B4413F8103C51007B
:1020C0000AA800EB131010F824EC094800F812E0FD
:1020D00003F00F03013128336B4413F8243C4354BD
:1020E0000132072AE5DD02480AB010BD88C30000AE
:1020F000640900202DE9F04182B004464FF001133D
:10210000019300252F46A8462E4604E0204607F0FE
:1021100062FB23781C442378002B48D06378052B7E
:10212000F7D801A252F823F0812100000D21000010
:10213000AB21000081210000412100006721000047
:10214000E378002BE5D1A37853B92046FFF77CFF55
:102150008046002836D0836813B139462046984718
:102160000137FFB2D5E7B8F1000F2ED001AA4146E2
:10217000204607F050FB0028CBD04FF0FF301BE08B
:10218000032D0AD06DB91EB3A31BB370C3F307238D
:10219000F37037710135EDB2BBE7204607F09CFBC9
:1021A000F0E7204607F005FBF4E72646B1E7A01C60
:1021B000094B984203D1002002B0BDE8F081FFF73F
:1021C00099FFF9E74FF0FF30F6E74FF0FF30F3E704
:1021D0004FF0FF30F0E700BFAF03002008B5084B19
:1021E0001B780BB1074808BD0648FFF783FF20B9ED
:1021F000034B01221A700348F5E70020F3E700BF04
:10220000201D00200C030020002300E00133032BDD
:102210000CD89A0106498A5C8242F7D101EB8312FD
:102220005268002AF2D001EB8310704700207047FB
:10223000780900202DE9F04182B0044610F82C5CAA
:1022400050F8283C13F1100F23D1036913F0020F4B
:1022500030D050F8202C2AB913F0040F21D143F0CC
:102260000403036101AB54F8241C284607F086FAE6
:10227000D8B954F8242C019B1A4444F8242C54F85F
:10228000202CD21A44F8202C54F81C2C134444F867
:102290001C3C54F8283C13F1100F3FD102B0BDE8AC
:1022A000F081002340F8283CF3E76FF0150344F871
:1022B000283CEEE701AB50F8202C50F8241C2846AF
:1022C00001F064FEA0B954F8243C019E334444F864
:1022D000243C54F8203C9B1B44F8203C54F81C3C04
:1022E000334444F81C3C46B9002344F8283CD0E76A
:1022F0006FF0150344F8283CCBE7284601F018FF9F
:10230000B6FBF0F300FB1366002EEDD154F8203C31
:10231000002BE9D0284601F097FEBAE754F8186C74
:1023200054F81C7C54F8148C09F0D1FA68B90023D5
:1023300044F8183CA4F1100005F00CF8002EADD0C4
:10234000424639462846B047A8E72146014809F0E9
:102350008FFAA3E7D803002070B582B006460C467A
:10236000FFF752FF631EDBB2012B0AD8054650B1BE
:1023700009F0ADFA08B1012C12D105F12C00FFF7DC
:1023800059FF02B070BD012CFBD101AB01220DF150
:102390000301304601F0FAFD019B002BF5D1F0E777
:1023A00005F12C01014809F063FAEAE7D80300209F
:1023B0002DE9F84F0546884616461F4607F0E0FA15
:1023C00000285CD1EFF31189202383F31288BFF337
:1023D0006F8F0024032C30D8A0011830294B1844EB
:1023E00004300022002304F0DBFF824608B10134F0
:1023F000F0E7A201234B03EB8414D4F804B01BF1E3
:10240000100F23D09D54C4F80880E6600023236198
:102410000A9B6361E7630B9BA3616FF00F0363602B
:10242000284601F085FEB8B917F0020F22D004F15A
:102430002C01154809F01CFA01E06FF00B0A89F332
:102440001188BFF36F8F5046BDE8F88F04F11C0070
:1024500004F080FFDA46F2E7284601F069FEB6FB99
:10246000F0F300FB1366002EDED0E36B43F00403B1
:10247000E363D9E7284601F0E7FD8246DFE76FF026
:102480000F0AE0E778090020D803002010B5EFF329
:102490001184202383F31288BFF36F8FFFF7B4FEFC
:1024A00020B10146436813F1100F04D084F3118862
:1024B000BFF36F8F10BD6FF08B0343602C31024868
:1024C00009F0D6F9F2E700BFD803002038B50024A0
:1024D00004E085F31188BFF36F8F0134032C1BD800
:1024E000EFF31185202383F31288BFF36F8F0B4B1B
:1024F00003EB84135B6813F1100FEAD1074BA101C2
:1025000003EB84126FF08B005060283119440431C2
:10251000034809F0ADF9DCE738BD00BF78090020B9
:10252000D803002070B5002511E0AC0104F12800AB
:10253000094E30440949043009F07FF904F11800CC
:10254000304404300122114609F0E5F80135032D2D
:10255000EBD9002070BD00BF7809002035220000B3
:1025600070B504460E4615460179184807F0D8F9AB
:1025700030B394F90020002A18DB6278202A04D0B6
:10258000222A0ED06FF0850019E02A68116840F801
:10259000101C9188927920F80C1C00F80A2C00205D
:1025A0000DE0A27800F8092C002008E06278212ACA
:1025B00009D1A0F110032B6007233360002070BD08
:1025C0006FF01200FBE76FF08500F8E7780A002053
:1025D00008B50146034807F0B7F910B1012200F829
:1025E000072C08BD780A002008B50169012381F88D
:1025F0004B300B6813B191F8493003B908BD08316D
:10260000014809F035F9F9E7D803002008B5016958
:10261000012381F84A300B6813B191F8483003B9AF
:1026200008BD0831014809F023F9F9E7D803002073
:1026300038B50D461446012382F84830136813B1AB
:1026400092F84A305BB9D4F890301A699B6893428B
:102650000BD004F118015DB1002200230BE002F160
:102660000801074809F004F9EDE73DB904F1180144
:1026700040F6CD420023024809F010F938BD00BFF2
:10268000D803002030B583B0054614460A1E16DD77
:1026900004F14C01D4F88C0006F055FF012384F8B6
:1026A0004930236813B194F84B306BB9D4F88C10CF
:1026B000CB694A684969521A9B1A3F2B0AD994F888
:1026C0009E305BB903B030BD04F10801094809F040
:1026D000CFF8EBE7012384F8A030F3E70194064B31
:1026E00000930123402204F14C012846FFF760FECD
:1026F000E8E700BFD80300208526000038B504694C
:1027000094F89E30A3B194F89F300BB1002010E0F4
:1027100084F84830D4F8900006F015FF05460022F2
:10272000002304F11801034809F0B8F8284600E036
:10273000002038BDD803002008B503464FF0000C38
:1027400080F89EC080F89FC080F849C080F848C0DB
:102750000B4A92E80300C3F89400A3F89810090C00
:1027600083F89A1083F89CC083F89BC083F8A0C0BC
:102770004022614603F14C0009F06CFC08BD00BF2B
:1027800050C3000030B583B00446D0F8A4305D6873
:102790000139052906D8DFE801F003050723262AB9
:1027A000FFF7CAFF03B030BD90F89E30002BF9D17F
:1027B000012380F89E302B6A02460021187BFFF728
:1027C00061FF94F84830002BECD12B6A187D0194FE
:1027D0000B4B0093022300221146FFF7E9FDE1E7CE
:1027E000FFF7AAFFDEE7012380F89F30DAE790F8D1
:1027F0009F30002BD6D0002380F89F30D2E700BF57
:102800003126000038B50C4615460146044807F04D
:1028100075F820B12A462146A438FFF7B3FF38BD2A
:10282000780A002010B582B08DF8071004690023E3
:1028300084F8483002E0012007F034F901220DF15C
:102840000701D4F8900006F07EFE30B909F03FF899
:1028500018B994F8A130002BEDD12122002304F106
:102860001801024809F01AF802B010BDD803002080
:1028700010B50469C4F8A40004F1A8030022C4F848
:10288000A8200B4A526872B11360094A5360094983
:1028900004F1080008F0D1FF074904F1180008F01E
:1028A000F1FF002010BD024A53601360EFE700BF44
:1028B000780A0020B1990000BD280000F0B585B06D
:1028C0000446A0F11806D0F88C305B681B6A1D7DA9
:1028D000284607F055F810B994F886300BB905B0C2
:1028E000F0BD4FF4806203A9A06F06F04CFE0746CE
:1028F0000028F4D0002384F8303010F03F0F00D1CE
:10290000471E0196064B009302233A460399284638
:10291000FFF74EFD3946A06F06F052FEDFE700BF1D
:102920003126000030B583B0084D002400944FF0EC
:10293000FF334FF480620649284604F05DFE0549E6
:10294000284604F09DFE204603B030BDD803002089
:10295000401D0020F0C3000008B5034806F0BEFB90
:10296000024806F0BBFB08BDFCC3000034C40000F5
:1029700008B5024805F040FD08BD00BF64C4000072
:10298000B0F5680F17D00CD840F6BA63984214D04F
:10299000B0F5683F13D03A2801D0012070470020DD
:1029A0007047094B98420CD0084B984201D0012047
:1029B00070470020704700207047002070470020BB
:1029C00070470020704700BF3A00003A2C5F5CA9B6
:1029D000E8B108B54268B2F5683F07D00F498A42AE
:1029E0001AD0006804F03EFC002008BD03680022F5
:1029F000BFF35B8F53E8001F012903D143E8002098
:102A00000028F7D1BFF35B8F04D11046EDE76FF4D8
:102A1000E04070470248E8E70248E6E72C5F5CA91F
:102A2000E98FFFFFEA8FFFFF30B308B54268B2F5C8
:102A3000683F0CD012498A421CD000684FF0FF3228
:102A40004FF0FF3304F08EFB88B10E480FE00368AF
:102A50000122BFF35B8F53E8001F002903D143E835
:102A600000200028F7D1BFF35B8F01D1002008BD03
:102A70000448FCE70448FAE76FF4E040704700BF01
:102A80002C5F5CA9E98FFFFFEA8FFFFF10B50446BA
:102A9000A8B16368B3F5683F10D0B3F5680F0DD0E7
:102AA0000D4A93420AD013F4686F0DD021680B4889
:102AB00008F047FD00232360074B636010BD084BFF
:102AC0005B6808489847E4E7236800221A605A6068
:102AD0009A60DA601A61EFE72C5F5CA9800F002032
:102AE000000200206CC4000010B5044668B36068A2
:102AF000B0F5683F28D0B0F5680F25D0174B984245
:102B000028D0FFF73DFFC0B14FF0FF324FF0FF3349
:102B10002146134804F0F4FA08B923681BB9114B95
:102B20005B6811489847236800221A605A609A60CF
:102B3000DA601A614FF468636360206808F04CFD46
:102B4000636843F03A03636010BD064B5B68074857
:102B50009847CCE72368002BD3D1D5E72C5F5CA93D
:102B6000800F00200002002094C400006CC400000C
:102B700008B5402314220449044808F0D4FC044951
:102B8000044805F0ABFC08BD800A0020800F00203F
:102B9000C4C40000D8C4000030BFFFF7FDBF00BFB1
:102BA00038B50446054D2A46054909F045FA054A57
:102BB0000021601909F04EFA38BD00BF0000000086
:102BC00020C300000400000070B50646064D074B08
:102BD0001D444C1B2046FFF7E3FF083CC6F8A44009
:102BE00005F1080070BD00BF0000000004000000F7
:102BF000074B9B6893F90E20002A08DB044A5269B0
:102C0000934204D0034A536843F0805353607047A3
:102C1000081B002000ED00E038B51546204B9B6AEC
:102C200013F4805F19D116241D4B9B6A13F4006FB7
:102C300000D018241A4B9B6A13F4007F10D0184B55
:102C40009A6B9B6A13F4004F09D0D9B1144A936A66
:102C500023F400439362192402E01724E4E71924C3
:102C60000F4B9B6A13F4806F00D01A240C4B9B6AA5
:102C700013F4807F08D10A4B9B6A13F4005F04D0E1
:102C80001C2402E01924EBE71B24054A936A43F451
:102C90007F439362012106F031FF2870204638BD42
:102CA00000ED00E0174B9B6A13F0007F25D11D203B
:102CB000144B9B6A13F0807F00D01F20114B9B6A3E
:102CC00013F4002F00D021200E4B9B6A13F4802FA9
:102CD00000D022200B4B9B6A13F4003F00D023202E
:102CE000084B9B6A13F4803F09D1064A936A6FEA46
:102CF00003436FEA1343936270471E20D8E72420F2
:102D0000F3E700BF00ED00E081690D4B5A6942F422
:102D100080725A61BFF34F8FBFF36F8F31F8021C7F
:102D20005A6922F480725A61BFF34F8FBFF36F8FDD
:102D30004DF60273994201D0002070470120704780
:102D400000ED00E070B504461646324B9B6A13F066
:102D5000100F1AD110252F4B9B6A13F0080F00D0CB
:102D600012252C4B9B6A13F0020F10D0294B586B85
:102D70009B6A13F0800F3DD000293FD0254A936A0B
:102D800023F080039362132503E01125E3E76FF03E
:102D90001500204B9B6A13F0010F00D014251D4B2A
:102DA0009B6A13F0200F00D015251A4B9B6A13F075
:102DB000100F04D1174B9B6A13F0020F04D0154B70
:102DC0005B6813F4006F1BD1124B9B6A13F0200F4A
:102DD00004D0104A536A23F4005353620D4A936A95
:102DE00043F0FF0393620121204606F087FE307016
:102DF000284670BD6FF015001325CAE71325C8E7F4
:102E0000214600F01DFA0028DED080F30988022553
:102E1000DAE700BF00ED00E038B5054600230B708F
:102E20001A4BD86A10F002002DD10C46DB6A002B39
:102E30002ADB164BD86A10F0804025D02846FFF7D1
:102E400063FF08B128681FE0104B9B6A13F0FF0F67
:102E50000DD10E4B986A10F47F400ED10B4B9B6A3C
:102E6000B3F5803F10D32846FFF71CFF0CE0224645
:102E700001212846FFF766FF06E022460121284689
:102E8000FFF7CAFE00E0002038BD00BF00ED00E003
:102E900030B58BB00C46264B5968C1F308010023AE
:102EA00083F31188BFF36F8F02F07F43B3F17F4F3D
:102EB00015D102F00C03082B14D012F0080F0BD020
:102EC00000250DF12702204606F01DFE86469DF8DE
:102ED000273053B10BB030BD04460125F1E7002582
:102EE0002C46EEE700252C46EBE70DF1040C20689C
:102EF0006168A268E368ACE80F0020696169A269B3
:102F0000E369ACE80F0045B1C3F308025AB96FEAB0
:102F100053236FEA4323089305E0089B23F4FF73D0
:102F200023F00103089301A9704606F0D2FDD1E712
:102F300000ED00E0024A536943F01003536170470B
:102F400000ED00E0EFF30880EFF3098101B5724670
:102F5000FFF79EFF01BD00BF00201349087000204D
:102F600080F31488BFF36F8F03F0DEF800200F4961
:102F70000860BFF34F8F0E4880F3088800F030F8E8
:102F8000202080F311880B484FF40461401880F32F
:102F90000988EFF314800221084380F31488BFF3FB
:102FA0006F8F00F00FF900002C1D002094ED00E061
:102FB00080330020C0250020084BD3F89000C0F3D8
:102FC0000720002306E0054AC2F898300021C2F825
:102FD000A01001338342F6DB704700BF00ED00E034
:102FE00010B572B6002484F31388FFF7E5FF23467B
:102FF00008E003F120010E4A4FF0FF3042F82100B3
:103000000133DBB2072BF4D9002308E003F16001A0
:10301000074A4FF0FF3042F821000133DBB2072BA3
:10302000F4D962B6BFF34F8FBFF36F8F10BD00BFEF
:1030300000E100E008B50A4B9B68834202D008F02B
:10304000E2FD08BDEFF30583002BF8D0054B5A686D
:1030500042F080525A605A6A22F400425A62EEE705
:10306000081B002000ED00E00A4A9368C3F8A8009E
:103070006FF00A01C3F8AC1007494B6843F0805366
:103080004B60002383F31188BFF36F8F9368D3F8ED
:10309000AC007047081B002000ED00E010B50446AE
:1030A000EFF31183202383F31288BFF36F8F0C4B50
:1030B000586998600B4B4FF000625A60D0F8A4201A
:1030C000094B1A60D0F8A8300022C0F8A82083F37A
:1030D0001188BFF36F8F00F039F9204610BD00BF93
:1030E000081B002000ED00E09C0F00200B498A68BF
:1030F0004FF030001044EFF3098C80E8F01F744665
:103100007046FFF7CBFFA64604498A6802F13000FB
:1031100090E8F01F8CF3098870470000081B00201E
:103120001EF0040F0CBFEFF30880EFF309808169F4
:1031300011F8021C0229FFD001B506F0D3FC01BD35
:10314000002807DB00F01F02400901239340024AD8
:1031500042F82030704700BF00E100E000280CDB9F
:1031600000F01F024009012393402030034A42F837
:103170002030BFF34F8FBFF36F8F704700E100E047
:10318000002808DB4901C9B200F1604000F5614048
:1031900080F80013704700F00F004901C9B2014BDD
:1031A0001954704714ED00E04209054B53F82220F2
:1031B00000F01F00012303FA00F01040704700BF29
:1031C00000E100E008B50B4B0B4A22F07F029A6049
:1031D000BFF34F8FBFF36F8FD3F8882022F47002B4
:1031E000C3F8882003F0D4FE04F038FF00F076F82E
:1031F00003F02CFF00ED00E00010000010B4A2F17D
:1032000020040E4942F8081C21F0010142F8081C74
:1032100042F8203C019B42F81C3C029B42F8183CBF
:10322000039B42F8143C4FF0807342F8043C046561
:103230000023C0F8A83010BC704700BF99140000EC
:10324000104B9B68BBB110F1160F0BD0D3F8942034
:10325000A2F1400C844510D8824210D98A4207D886
:1032600000207047D3F894208A4201D8002070478C
:10327000D3F894007047002070470020704700206A
:10328000704700BF081B002008B50D4614460C4AC5
:103290009060D0F8A4200B4B1A6000F057F8A446B9
:1032A000644685F309884FF00000074B9847204695
:1032B0004FF000014FF000024FF00003034C204795
:1032C000081B00209C0F0020799B0000991400002F
:1032D000014B10221A61704700ED00E0002206E069
:1032E00003F00F030949194420230B7601322F2ADA
:1032F0000ADC53B2002BF3DB03F1604303F56143B7
:10330000202183F80013F1E7704700BFFCEC00E0D8
:1033100008B5EFF30583103B044A02EBC30149688B
:1033200052F833008847FFF763FC08BD5CC100001A
:1033300008B5034B034A0121034806F070FD08BDA0
:103340000000042000000020E8C4000008B5D0F808
:103350009430403B0448036040234360034B836048
:10336000012106F060FD08BDA00F002000000B1534
:10337000084AC2F898000B6823F01F03034343F088
:103380001003C2F89C308B6843F00103C2F8A030F0
:10339000704700BF00ED00E0084BD3F89030C3F356
:1033A0000723013B984205D810B50446FFF7E0FF1C
:1033B000204610BD6FF01500704700BF00ED00E023
:1033C00010B5034C0123227806F029FC207010BDB3
:1033D000211D002008B500230B4A127806F01FFCBF
:1033E00010F1160F0FD0024606E0084BC3F89820E4
:1033F0000021C3F8A0100132044BD3F89030C3F37E
:1034000007239342F1DC08BD211D002000ED00E000
:10341000044B0522C3F89420BFF34F8FBFF36F8F87
:10342000704700BF00ED00E0BFF35F8F024B00224A
:10343000C3F89420704700BF00ED00E038B51C4B86
:103440001D681C4BD3F89030C3F307239D422BD843
:10345000FFF7EAFF002409E0154B5B6804EB440129
:1034600003EB81012046FFF783FF0134A542F3D827
:103470001148057006F0FBFB10F1160F13D00E4B30
:103480001A780C4BD3F89030C3F307239A4207DA2B
:10349000084BC3F898200021C3F8A0100132F0E7D0
:1034A000FFF7B6FF002038BD4FF0FF30FBE700BF4D
:1034B000F4C4000000ED00E0211D002008B5024B1F
:1034C0001B689847002008BDAC0F0020034B186014
:1034D000034A937843F0020393707047AC0F0020C7
:1034E0002C01002008B5064921F00701C1F1005266
:1034F00002F58022034805F0ADFD002008BD00BFA5
:1035000087420020B00F00200123044AC2F8403552
:103510004FF08042C2F878350020704700E001404B
:1035200030B108B5034B800143F00103984708BD53
:10353000704700BF70C3000010B5044606F09DFC44
:10354000C0B104F00F0314F0800F0AD114F0080F7B
:1035500014D103F1090040014830094B18440430EC
:1035600010BD14F0080F07D158014830044B18441F
:103570000430F5E70020F3E70248F1E70248EFE7FF
:10358000BC0F0020081100202812002010B50024D4
:1035900005E0E0B206F08CFC06F094FC0134072C48
:1035A000F7D9002402E006F08DFC0134072C0AD87C
:1035B000E0B206F083FC0369002BF4D10A4B03EB65
:1035C00084130361EFE7882006F072FC06F07AFCB2
:1035D000082006F073FC03691BB106F073FC0020A1
:1035E00010BD024B0361F8E74C1600204C1200207E
:1035F00008B500220023024803F072FE08BD00BF98
:10360000FC02002010B504E04168054807F099FF6E
:103610002CB1FFF7EDFF04460028F5D1F8E710BD07
:103620006C02002000B583B00022002301A91048DD
:1036300003F066FD20B90198406003B05DF804FB1B
:10364000FFF7E0FF0022002301A9094803F058FD1D
:1036500008B10020F1E70199496004230B74054883
:1036600008F04DF80449054808F002F9F1E700BFF9
:103670006C020020FC020020E40F0020A8040020BF
:1036800010B50446FFF7CEFF50B101460023037486
:103690000472064808F033F8054B93F8243003B958
:1036A00010BD0449044808F0E3F8F9E7FC020020E3
:1036B000BC0F0020E40F0020A804002010B5082053
:1036C000FFF73AFF10B10446037A03B910BD012396
:1036D00043770377FFF7A6FF01460028F6D00123C2
:1036E000037403738460044808F009F8034904482C
:1036F00008F0BEF8EAE700BFFC020020E40F00205B
:10370000A804002070B5044685782846FFF714FF0A
:10371000064615F0800F14D1E3784BB3012B12D17C
:10372000FFF780FF014670B10123737703740373C1
:1037300086601B4807F0E3FF1A491B4808F098F819
:1037400001E0E37803B170BDFFF76CFF014600288C
:10375000F9D00023B3770123037403230373866036
:103760000F4807F0CCFF0F490F4808F081F8EAE74F
:10377000FFF758FF05460028E5D0A1780B4806F072
:103780005BFBF06001232B7402232B73AE60294690
:10379000034807F0B4FF0349034808F069F8D2E78B
:1037A000FC020020E40F0020A8040020007002406A
:1037B00010B5844644694FF0000EC4F800E0C4F828
:1037C00004E01F4BD3F880242270D3F88424627065
:1037D000D3F8881489B2D3F88C24120292B20A4327
:1037E0006280D3F8901489B2D3F89424120292B272
:1037F0000A43A280D3F8982492B2D3F89C341B02D7
:103800009BB21343E3800823C3600E4B20686168BA
:1038100003C3DCF8003071469CF80900984794F91E
:103820000030002B01DBE38823B9074B0022A3F80B
:103830008C2210BD044AA2F88C3201F09BF9F8E703
:1038400000700240C00F0020BC0F002038B5046893
:103850000379032B06D8DFE803F002060B1020469D
:10386000FFF7A6FF38BD21460F4806F0A4FBF9E795
:1038700023680121607A9847F4E7A37A0BB9E37FC4
:1038800023B123680221607A9847EBE7074D4FF098
:10389000FF324FF0FF33284603F064FC01F048FA92
:1038A000284603F0DFFCECE7BC0F0020F40F0020FB
:1038B00010B50378042B1CD8DFE803F01C030C2C94
:1038C0003B0000F023FFA0B900F0AEFE1F4806F059
:1038D00095FB0EE01D4C204606F03BFB002000F05F
:1038E000FBFE012384F82530236813B10021022058
:1038F000984710BD154C002384F8253001F042FB99
:10390000204606F00CFB2368002BF2D00021042097
:103910009847EEE70D4B93F82530002BE9D000F0E7
:10392000FFFE0A4B1B68002BE3D0002105209847BF
:10393000DFE7064B1B68002BDBD0044A92F82520FA
:10394000002AD6D0002106209847D2E7BC0F0020DD
:1039500008B507F083FD01F015FB00F05BFEFFF7F3
:1039600051FEFFF713FE07F072FD024800F016FF4C
:1039700008BD00BFFD3A000070B505460CE0616867
:10398000284807F0DEFD07E004F10800FFF75EFFBE
:103990006168244807F0D5FDFFF72AFE0446002899
:1039A0003ED0214B93F8253013B9237C002BE6D170
:1039B000237C042BECD801A252F823F0D13900006B
:1039C00089390000DB390000073A00001B3A00008B
:1039D00004F10800FFF76CFFDAE705F110064FF07D
:1039E000FF324FF0FF33304603F0BCFBFFF7CEFD54
:1039F000304603F037FC55F8283C002BC8D0002196
:103A000001209847C4E7FFF759FE55F8283C002BE2
:103A1000BED000210A209847BAE7FFF799FFB7E721
:103A200070BD00BF6C020020BC0F002070B50446C2
:103A300085782846FFF780FD064615F0800F14D1E3
:103A4000E3784BB3012B12D1FFF7ECFD014670B1C7
:103A500001237377037403738660244807F04FFED5
:103A60002349244807F004FF01E0E37803B170BD67
:103A7000FFF7D8FD01460028F9D00023B3770123D2
:103A80000374032303738660184807F038FE18494F
:103A9000184807F0EDFEEAE7FFF7C4FD05460028E9
:103AA000E5D00123037402230373866006F10C0141
:103AB000A07800F03DFF104BB3F88C32F2689342CF
:103AC0000CD80D4B0022A3F88C222946074807F09A
:103AD00016FE0749074807F0CBFEC8E79B1A064ABF
:103AE000A2F88C3201F046F8EFE700BFFC0200209C
:103AF000E40F0020A8040020BC0F002010B588B0FF
:103B00000023039304930593069307930378013BE3
:103B1000052B1CD8DFE803F025031D2143290323CF
:103B20008DF81430FFF77EFD034680B19DF81C2010
:103B3000027400F1080205A903C982E803001946CE
:103B4000214807F0DCFD2149214807F091FE08B02B
:103B500010BD04238DF81430E4E704238DF81430ED
:103B6000E0E702238DF81C30DCE704468078FFF79D
:103B7000E3FC837A012B0ED005D8002BE7D1204639
:103B8000FFF754FFE3E7023BDBB2012BDFD820460F
:103B9000FFF7B8FDDBE72046FFF7B4FDD7E701A844
:103BA00000F0C2FF9DF80530052B07D00020FFF77D
:103BB000C3FC01238DF81C300590B3E79DF8043059
:103BC00013F0600FC3D0F1E7FC020020E40F0020E7
:103BD000A804002030B583B0124800F0DFFD124B7E
:103BE00098421BD1114803F03FF8114803F06CF8DC
:103BF000104D002400944FF0FF334FF480620E49C3
:103C0000284603F0F9FC0D49284603F039FD0C491C
:103C10000C4807F012FE204603B030BD6FF00400E0
:103C2000FAE700BFFD3A00000000AD0B38C5000008
:103C300034C50000A80400208021002028C5000011
:103C400079390000E40F002010B5184B93F82430A8
:103C500013B10024204610BD154C204607F0BCFCD3
:103C6000002001F0A5FB44F81C0C002201212720B4
:103C700005F076FF07F0EBFBFFF788FC044618B968
:103C80000A4B012283F824200A4B1B681BB10A4906
:103C90000A4807F0EDFD4FF08043D3F8383413F0B5
:103CA000010FD7D0002006F021F9D3E7BC0F002088
:103CB000F40F0020FC020020E40F0020A8040020E4
:103CC000074B93F824302BB1054B93F8253023B1E3
:103CD000002070476FF0120070476FF012007047BD
:103CE000BC0F002038B5124B93F82430BBB104460A
:103CF00005782846FFF720FCA0B145722279827230
:103D000062884260207810F0080F03D163885A1E41
:103D100013420AD1618800F02FFD002038BD6FF0FA
:103D20001200FBE76FF01500F8E76FF01500F5E7FC
:103D3000BC0F002038B5164B93F82430E3B104468D
:103D4000134B93F82530D3B1FFF7F6FB0546C8B106
:103D5000837A012B19D007D80BB900F0EFFF0020B0
:103D6000E8606B69AB6138BD023BDBB2012BF6D872
:103D7000204600F0A5FEF2E76FF01200F3E76FF0C7
:103D80001200F0E76FF01500EDE76FF01500EAE7BD
:103D9000BC0F0020114B93F824309BB110B50446A2
:103DA0000E4B93F8253083B1FFF7C6FB80B114F0BA
:103DB000080F10D1204600F0ADFE204601F08CF92E
:103DC000002010BD6FF0120070476FF01200F8E78E
:103DD0006FF01500F5E76FF01500F2E7BC0F00205B
:103DE00038B5104B93F824307BB104460D460D4B8B
:103DF00093F8253063B1FFF79FFB60B175B12046A2
:103E000000F066FE2870002038BD6FF01200FBE75E
:103E10006FF01200F8E76FF01500F5E76FF015008E
:103E2000F2E700BFBC0F002038B5154B93F82430E3
:103E3000EBB10446FFF780FB0546D8B114F0080F3C
:103E400009D02B7ACBB901232B720D4B93F8253077
:103E500043B9002038BD204600F05CFE204601F04A
:103E60003BF9EEE7204601F0F7F80020F2E76FF0AB
:103E70001200EFE76FF01500ECE76FF07700E9E76D
:103E8000BC0F00202DE9F04184B01F463C4B93F855
:103E90002430002B65D0044688461646384B93F8EC
:103EA0002530002B60D010F0800F60D0FFF744FB6E
:103EB000054600285ED0037A002B5ED04FF0FF321B
:103EC0004FF0FF332F4803F04DF9AB7F9BBB1EB97A
:103ED000EB7F0BB10023EB77AB7A63B95EB1284A75
:103EE0005289B24207D96968B6FBF1F201FB12624E
:103EF0000AB90122EA771BB900F026FFA04220D1BF
:103F00000123AB77CDF8048002960023039301A927
:103F1000204600F0B3FC1C4B984219D00023AB772D
:103F2000D7B13B606FF00404164803F09BF92046BC
:103F300004B0BDE8F081134803F094F96FF00A046F
:103F4000F5E700F0F5FE0F4803F08CF90024EEE7EA
:103F50002FB13E600024E7E76FF00404E4E700249B
:103F6000E2E76FF01204E2E76FF01204DFE76FF0B0
:103F70001504DCE76FF01504D9E76FF01504D6E7F8
:103F8000BC0F0020F40F00200000AD0B2DE9F04124
:103F90001F462B4B93F82430002B42D00D4616467B
:103FA000274B93F82530002B3ED010F0800F3ED1E8
:103FB00049B3FFF7C1FA044600283BD0037A002B2F
:103FC0003BD04FF0FF324FF0FF331E4803F0CAF8EA
:103FD000E368B0469E4228BF9846CDB14246A169EB
:103FE000284608F029F8A3694344A361E368A3EBDA
:103FF0000803E3600FB1C7F80080124803F032F9FC
:104000000020BDE8F081002AD3D06FF01500F8E75A
:10401000002EE3D107B13B600A4803F023F90020EA
:10402000EFE76FF01200ECE76FF01200E9E76FF0D6
:104030001500E6E76FF01500E3E76FF01500E0E725
:10404000BC0F0020F40F0020274B93F82430002BE6
:104050003AD0254B93F82530002B38D010F0800F44
:1040600038D110B5FFF768FA0446002835D0037A36
:10407000002B35D04FF0FF324FF0FF331B4803F0D9
:1040800071F8E3682BB96369A36101232377637F28
:1040900023B9164803F0E6F8002010BDFFF7C2FA76
:1040A000014658B10123037484600373104807F07C
:1040B00026FB1049104807F0DBFBEAE70B4803F04A
:1040C000D1F86FF00B00E8E76FF0120070476FF067
:1040D000120070476FF0150070476FF01500DCE7B5
:1040E0006FF01500D9E700BFBC0F0020F40F0020CF
:1040F000FC020020E40F0020A8040020084B93F8E5
:1041000024303BB110B50C46FFF716FA28B1046015
:10411000002010BD6FF0120070476FF01500F8E737
:10412000BC0F0020014B1860704700BFBC0F00207F
:1041300008B5074B93F8243023B1FFF7FDF920B100
:10414000406808BD6FF01200FBE76FF01500F8E75C
:10415000BC0F002042B200F00F0310F0080F09D18D
:10416000002A03DB064800EB83007047054800EB9C
:1041700083007047002A01DB0348704703487047FB
:104180003071024008710240507102402C710240AF
:1041900042B200F00F0310F0080F15D1002A09DB1E
:1041A00003EB83039B0003F1804303F51C33D3F837
:1041B0000807704703EB83039B0003F1804303F57B
:1041C0001C33D3F808067047002A03DB034BD3F8EF
:1041D000A8077047014BD3F8A8067047007002404B
:1041E0004FFA80FC10F0080F22D100F00F03BCF151
:1041F000000F0FDB10B4184C03EB830004EB8000BE
:10420000C0F80017C0F804270A33012244F823201D
:1042100010BC7047104803EB830C00EB8C0CCCF8FF
:104220000016CCF8042600EB83000123436070479E
:10423000BCF1000F07DB084BC3F8A017C3F8A42795
:1042400001229A647047044BC3F8A016C3F8A42651
:1042500001225A62704700BF0070024008B505F0A5
:104260005EFF18B1024B8222C3F81C2C08BD00BFB0
:104270000070024008B505F052FF18B1024B002251
:10428000C3F81C2C08BD00BF0070024000B583B00D
:104290000023074A1370074A1370019301238DF816
:1042A0000430054B1B6801A8984703B05DF804FB78
:1042B000251D0020241D0020441A002000B583B0D5
:1042C00000238DF804300C4BD3F82025ADF80620E0
:1042D000D3F8C03463B94FF48071084A13680B43B4
:1042E0001360074B1B6801A8984703B05DF804FBF7
:1042F0004FF00121F1E700BF00700240401A00209A
:10430000441A002000B583B0012303FA01F1154AD5
:1043100013680B43136010F0800F12D1124B1B680F
:1043200019420BD106238DF804308DF806000123C5
:104330008DF807300D4B1B6801A8984703B05DF856
:1043400004FB094B1B681942F8D106238DF8043091
:104350008DF8060000238DF80730044B1B6801A878
:104360009847EBE7401A00203C1A0020441A00202E
:1043700000B583B0114BD3F8803413F0800F1BD1FC
:1043800000220F4B1A700F4A136823F001131360B9
:104390000D4A136823F48033136043F00103136064
:1043A0000023019305238DF80430084B1B6801A8F6
:1043B000984703B05DF804FB8022E2E700700240FA
:1043C000241D00203C1A0020401A0020441A00201E
:1043D00010B582B01C4BD3F80044C3F8004414F469
:1043E000807F0BD0194B01221A7000230193022306
:1043F0008DF80430164B1B6801A8984714F4007F11
:104400000AD00023114A1370019303238DF804305E
:104410000F4B1B6801A8984714F4806F12D00B4B08
:104420001B787BB10023094A1370074A0121C2F8A7
:1044300008159165019304238DF80430044B1B6823
:1044400001A8984702B010BD00700240251D002051
:10445000441A0020EFF31183202282F31288BFF365
:104460006F8F0C4AD2F8002C72B90A4A49F27531A2
:10447000C2F8001CC020C2F8140CC2F8001C83F360
:104480001188BFF36F8F7047024AC021C2F8141C15
:10449000F5E700BF00E00640EFF31183202282F32E
:1044A0001288BFF36F8F0C4AD2F8002C72B90A4AF7
:1044B00049F27531C2F8001C0020C2F8140CC2F891
:1044C000001C83F31188BFF36F8F7047024A0021ED
:1044D000C2F8141CF5E700BF00E00640EFF31183BB
:1044E000202282F31288BFF36F8F0C4AD2F8002C7F
:1044F00072B90A4A49F27531C2F8001C0320C2F8A9
:10450000140DC2F8001C83F31188BFF36F8F70473E
:10451000024A0321C2F8141DF5E700BF00E006407F
:10452000EFF31183202282F31288BFF36F8F0C4ABE
:10453000D2F8002C72B90A4A49F27531C2F8001C4F
:104540000020C2F8140DC2F8001C83F31188BFF3D9
:104550006F8F7047024A0021C2F8141DF5E700BFB3
:1045600000E0064008B505F0C7FDC0B905F0BAFD8A
:10457000C0B9114B0122C3F800250F4BD3F800340A
:1045800013F4006FF9D00C4B4FF40062C3F8002411
:1045900005F0A8FD48B905F0AFFD48B908BDFFF723
:1045A0009DFFE3E7FFF756FFE3E7FFF775FFF2E74D
:1045B000FFF7B6FFF2E700BF00700240F8B506460D
:1045C0000C4615464B68934200D81D46216801F001
:1045D0006043B3F1005F10D1236833607560606899
:1045E000401B606023682B442360A36813F0010F15
:1045F0000AD0281E18BF0120F8BD054F2A463846AC
:1046000007F01AFD3760E9E7003818BF0120F3E72B
:104610004C1800200023024A1360024A13707047AE
:10462000441A0020261D002010B5244B4FF40062D0
:10463000C3F80024FFF796FF05F07BFD10B1204B77
:104640001B7863BB05F058FD90BB05F041FD58B1E8
:104650001A4B40F2E372C3F800284022C3F8042842
:10466000BFF36F8FBFF34F8F144B8022C3F81C250D
:104670000122C3F83025134B40F2FF121A600024C8
:10468000114B1C60114B1C70FFF7F4FD104B1C709C
:10469000104B02221A7005F02FFD60B910BD0024E6
:1046A000064BC3F80045FFF75DFF054B1C70C9E7DB
:1046B000FFF714FFC9E7FFF733FFEFE70070024091
:1046C00060020020401A00203C1A0020221D002019
:1046D000241D0020261D002010B5084B00221A7052
:1046E00050B9074B074CC4F80033272005F02EFAC9
:1046F0000123C4F8043510BD034BF3E7251D00204A
:10470000FDFFDF0100700240FDFFFF01034B187841
:10471000012894BF00200120704700BF261D002003
:10472000EFF31182202383F31288BFF36F8F104BB6
:104730001B7803F0FF00B3B10E4BD3F8003413F431
:10474000007F0FD10B4B0121C3F82C15D3F82C158A
:10475000D3F8003413F4007F05D00020054BC3F8D4
:104760002C0500E0002082F31188BFF36F8F7047A3
:10477000251D00200070024010F0800F08D1054B6D
:1047800000F00F0000EB400003EBC003998270477C
:10479000014BF5E78C1800206419002070B5264BFA
:1047A0001C78002C46D1254B1860234B01221A702F
:1047B000254613E040213046FFF7DEFF16F0800F5C
:1047C00016D11F4B05F00F0202EB420203EBC203AE
:1047D00000229A751A731A610135EDB2082D1DD8A1
:1047E00045F0800615F0080FE4D040F2FF11E2E733
:1047F000144BE7E740212046FFF7BEFF14F0800F7F
:1048000014D10F4B04F00F0202EB420203EBC20380
:1048100000229A751A731A610134E4B2082C07D881
:1048200014F0080FE6D040F2FF11E4E7054BE9E78A
:10483000054870BD0548FCE7261D0020441A0020ED
:104840008C180020641900200000AD0B0500AD0B92
:1048500000F00F0110F0800F09D1074BD3F8142599
:1048600001238B40134214BF012000207047024BEC
:10487000D3F81025F4E700BF0070024070B546B2CF
:10488000002E11DB102300F00F02D418EFF3118E6D
:10489000202383F31288BFF36F8F3AB91B4B1B7829
:1048A000834203D01A482BE00023ECE7194B1B6826
:1048B000DB439BB2184805682B434FF0010C0CFA00
:1048C00004FC13EA0C0F1AD1002E16DB134B02EB7B
:1048D000420203EBC20301221A7307C983E80700EF
:1048E00000221A619A7545EA0C050B4A15600C4BBB
:1048F0008022C3F804210B4802E00B4BE7E70B488A
:104900008EF31188BFF36F8F70BD00BF241D002090
:104910000A00AD0B401A00203C1A00208C18002021
:1049200000E100E00000AD0B641900200B00AD0BAE
:1049300010F0800F17D10E4B00F00F0000EB40007D
:1049400003EBC003EFF31182202080F31288BFF342
:104950006F8F18690860197B39B9987D82F31188C7
:10496000BFF36F8F7047034BE6E70420F6E700BF05
:104970008C1800206419002010F0080F07D100F0F7
:104980000F0000F59470064B53F820007047044B5D
:10499000D3F8C00410F4803FF8D00020704700BF67
:1049A000007002403F4B1A683F4B1B681A4200D10F
:1049B0007047F0B585B0002200233C4802F0F0FCBF
:1049C000002854D005B0F0BD05F0E9FB06465BE0D9
:1049D000374C03E066F07F05EDB2354C05F00F0370
:1049E00003EB430304EBC30415F0800F25D12846E5
:1049F000FFF7C2FF07460346A28A214602A805F038
:104A00009AFB029B13B1039BBB421CD308B9002342
:104A10002373FFF723FC0122B24023490B6823EAEA
:104A200002030B602369039A13442361214B1D7019
:104A300002992846FFF7D4FBC4E7A28A214602A8C0
:104A4000FFF7BCFDE2E70221A1750122B240154843
:104A5000036823EA0203036006238DF804308DF80F
:104A600006508DF80710144B1B6801A898470D4B92
:104A700018680D4B1B68184010D010F00123A3D00C
:104A8000184605F08CFB06460F2EA3D9A6F110039D
:104A9000DDB213F0800F9BD1084C9FE7034802F072
:104AA00059FC8FE73C1A0020401A0020EC0200203D
:104AB00064190020231D0020441A00208C180020B7
:104AC00040F48070014BC3F8180570470070024035
:104AD00042B200F00F0310F0080F16D1002A0BDBD2
:104AE00003F588739B0003F1804303F51C3358687A
:104AF000003818BF0120704703F58473044A52F848
:104B00002300003818BF012070470020704700BF05
:104B100000700240034BC3F80C0540F48070C3F8EA
:104B20000C05704700700240002303604360104B87
:104B3000D3F880240270D3F884244270D3F8881408
:104B4000D3F88C24120292B20A434280D3F8901414
:104B5000D3F89424120292B20A438280D3F89824A4
:104B6000D3F89C341B029BB21343C380704700BF31
:104B700000700240014B0122DA647047007002406D
:104B800010B582B00446FFF703FB00F00100254A90
:104B9000137843401370FFF76DFB234802F0DAFBF4
:104BA00061B2002925DB214A04F00F0303EB430027
:104BB00002EBC002907D03281DD0127B6ABB002946
:104BC00000DB1022134401229A401948036823EAAB
:104BD0000203036000291DDB06238DF804308DF8E5
:104BE000064000238DF80730124B1B6801A8984738
:104BF0000CE0114AD8E700290ADB102213440122F5
:104C00009A400B490B6823EA02030B6002B010BD07
:104C10000022F3E7882CF9D1DEE7002CF6D1FFF76C
:104C2000A9FFF3E7221D0020EC0200208C180020D1
:104C30003C1A0020441A00206419002038B5384B73
:104C4000D3F8604134B10022C3F86021D3F86C443A
:104C5000C3F86C44324BD3F828318BB1304B00226F
:104C6000C3F828212F4A137892F90020002A2DDB5F
:104C7000102203F00F031344012202FA03F31C4332
:104C8000294B1D782846FFF765FA036803BB2046C9
:104C900005F06CFA224BD3F80031FBB9204BD3F866
:104CA000543143B11E4B0022C3F85421D3F80433CE
:104CB00013F4001F19D11A4BD3F85831C3B9184B4C
:104CC000D3F85C31DBB9FFF76DFE38BD0022D0E7C9
:104CD000002303602846FFF753FFD8E7104B00225C
:104CE000C3F80021FFF7D2FAD8E7FFF7E7FAE2E7C7
:104CF0000B4B0022C3F85821FFF76AFBDFE70B4B91
:104D00009B682BB9084B1B78802BDCD0002BDAD0AA
:104D1000034B0022C3F85C21FFF72AFBD3E700BF57
:104D200000700240241D0020231D0020EC02002002
:104D3000014B01221A65704700700240014B0122AD
:104D40005A65704700700240014B1878704700BFE9
:104D5000241D002010B4EFF3118C202383F312885C
:104D6000BFF36F8F10F0800F19D1102300F00F01E7
:104D70000B4401229A400B4C236823EA0203236070
:104D800010F0080F05D101F59471074B002243F88C
:104D900021208CF31188BFF36F8F10BC7047002364
:104DA000E4E700BF401A00200070024070B582B0F6
:104DB000EFF31185202383F31288BFF36F8F42B284
:104DC000002A24DB3A4C00F00F0303EB430104EB11
:104DD000C104002A20DB374A126803F110010123C5
:104DE0008B4033EA020114D10021217322EA03022D
:104DF00030490A6030490A6822EA03020A60032344
:104E0000A37585F31188BFF36F8F02B070BD2B4C73
:104E1000D9E7FFF79FFFF2E710F0080F13D18028C2
:104E200034D003F2DA3252002549C1F80028D1F813
:104E30000428D2B242F00202D1F804683243C1F829
:104E40000428D1F804281C4A11681A4A166866EA30
:104E5000010C012202FA03F31CEA030FD1D026EA67
:104E60000306144A16601943134B19600023237379
:104E70000323A37506228DF804208DF806008DF813
:104E80000730104B1B6801A89847BAE70C4940F25D
:104E9000B472C1F80028D1F80428D2B242F004025A
:104EA000D1F804683243C1F80428D1F80428CAE7CD
:104EB0008C1800203C1A0020401A002064190020A1
:104EC00000700240441A002038B50446094D4FF0E6
:104ED000FF324FF0FF33284602F062FA2046FFF718
:104EE00065FF284602F036FA034B8022C3F80421FE
:104EF00038BD00BFEC02002000E100E038B5124BE5
:104F00005B88124A146844EA034409E045F08000D3
:104F100010F0080F0FD0EDB20123AB4024EA0304D8
:104F200064B194FAA4F5B5FA85F50F2DEED9A5F183
:104F30001000C0B2ECE7FFF739FFECE7024B40F29C
:104F4000FF121A6038BD00BF401A00203C1A002032
:104F500038B50A4B8022C3F884212720FEF724F9B4
:104F600000B938BDFFF7CAFF054C0025C4F8045549
:104F7000272004F0F0FDC4F80053F2E700E100E060
:104F80000070024008B54FF0FF324FF0FF33154874
:104F900002F006FAFFF7DCFF134B1B7863B9134BE3
:104FA0000022C3F80025FFF765F90E4802F0D2F998
:104FB0000F4B01221A7008BD0C4B0022C3F80821C8
:104FC000012209498020FFF70BF9084BD3F808317B
:104FD000002BFAD00023054AC2F80831024A1370A8
:104FE000DDE700BFEC020020221D0020007002401F
:104FF000261D002070B5044646B200F00F054FF0A4
:10500000FF324FF0FF33114802F0CAF92046FFF794
:10501000CDFE002E10DB0E49D1F814350122AA4036
:1050200023EA0203C1F81435084802F093F9094B4A
:105030008022C3F8042170BD0549D1F81035012242
:10504000AA4023EA0203C1F81035EDE7EC02002084
:105050000070024000E100E0F8B5044646B200F0FE
:105060000F05FFF7F5FB68B9002E0CDB1849D1F8E6
:1050700014350122AA401343C1F81435631EDBB274
:10508000062B09D9F8BD1249D1F810350122AA40E2
:105090001343C1F81035F1E7EFF31187202383F3B1
:1050A0001288BFF36F8F2046FFF754FE002E0DDBF2
:1050B00010231D440122AA4006490B6823EA02037B
:1050C0000B6087F31188BFF36F8FDBE70023F0E7F6
:1050D000007002403C1A002010B5044610F0800F0A
:1050E00003D0064BC3F8184510BDFFF7F1FC0028AC
:1050F000F7D02046FFF72EFEF3E700BF0070024016
:10510000004870479C1A0020034BC01A8010034BC4
:1051100003FB00F0704700BF5C1A0020B76DDBB6E0
:1051200038B505460C46FFF7EFFF0146402203481D
:1051300005F0C8F801462846A04738BDF8C0000071
:1051400030B583B005460C46FFF7DEFF014640232D
:1051500000932346054A064805F0CEF8011E01DB00
:1051600003B030BD2846A047FAE700BF41A30000C6
:10517000F8C0000008B510B101280DD008BD00210D
:10518000084805F02DF8836813F0070FF6D10021C9
:10519000044805F085F8F1E70121024805F080F8A0
:1051A000ECE700BFF8C0000010B582B0EFF3118447
:1051B000202383F31288BFF36F8F154A136843F0DF
:1051C0000201116013F0010F09D1002384F311884B
:1051D000BFF36F8FB3B905F0BBF802B010BD0DF18E
:1051E000070201214FF0804004F0DEFF9DF80730F8
:1051F000012B01D00023E9E7FFF782FF05F03EF81D
:105200000123E3E70021034805F04AF8E5E700BF82
:10521000AC1A0020F8C0000010B5EFF31184202371
:1052200083F31288BFF36F8F074A136823F00201DC
:10523000116013F0010F04D084F31188BFF36F8F56
:1052400010BD05F08FF8F7E7AC1A002070B582B0FA
:105250000546012807D14FF08043D3F81C3403F0F2
:105260000303012B4BD006F032FB044618B9284B40
:105270001B78002B38D1EFF31186202383F312889B
:10528000BFF36F8F012424B94FF080430222C3F88B
:10529000082301AA00214FF0804004F085FF20B1CF
:1052A000019B012B26D0012D24D0FCB1304604F007
:1052B00077FC4FF08043D3F81835002BE9D14FF03D
:1052C0008043D3F80431002BE3D04FF08043002219
:1052D000C3F80421D3F804210122C3F818250D498D
:1052E000C1F880219A60D4E70026CCE7012005F0C0
:1052F00043F8DEE72CB186F31188BFF36F8F02B05D
:1053000070BD4FF080430222C3F80423F7E700BFCB
:105310002C1D002000E100E000B585B0CDF800D0E4
:10532000CDF804D000230293012303936B46074A70
:1053300004F0FEFF002805DB4FF48042002368469E
:1053400002F02EF805B05DF804FB00BFA5A3000035
:1053500070B5064600220121104604F001FC1148F8
:1053600001F054F8104B984219D101F063F8002471
:10537000012C12D82146304604F032FF0546214662
:10538000304604F038FF094903F0BAFF002805DB76
:105390000123AB601C44E4B2EAE7002070BD6FF06B
:1053A0000400FBE7755100000000AD0B3CC5000098
:1053B00008B5C1B2014804F01EFF08BDF8C00000E6
:1053C00010B50446104B0121BFF35B8F53E8002F4B
:1053D00043E800100028F9D1BFF35B8F1AB1631EB8
:1053E000012B0DD910BD094804F005FF0849002321
:1053F0004B608B60CB6001238B6003F09EFFEEE778
:105400002046FFF723FFEDE7581A0020F8C0000000
:10541000481A002010B504460A2806D0E1B2064812
:1054200083685B689847204610BD034883685B68C3
:105430000D219847F2E700BF34C1000010B5044CBD
:105440002046FEF743F82046FCF720F810BD00BFC9
:105450001554000008B5054806F013F818B1FFF719
:10546000EDFF002008BD6FF01200FBE734C1000023
:10547000F0B51C46059F069E00F01F0C400936D073
:10548000012837D1284D0CF5E07355F8233099B336
:1054900001209AB34FF0020E40EA0E008CB34FF099
:1054A0000C0E40EA0E007FB34FF4E06E40EA0E00AF
:1054B0006EB34FF4403E40EA0E0023EA000049B3C9
:1054C0000B784AB31278520013433CB3227892000F
:1054D00013432FB33A78120213431EB332781204E7
:1054E000134303430CF5E07C45F82C30F0BD4FF03E
:1054F000A045C8E70025C6E70020CAE74FF0000E28
:10550000CAE74FF0000ECCE74FF0000ECEE74FF0A9
:10551000000ED0E70023D4E70022D5E70022D7E72A
:105520000022D9E70022DBE70003005000F01F0350
:10553000400909D001280AD1064A03F5E07352F860
:10554000230000F0010070474FF0A042F5E7002271
:10555000F3E700BF0003005028B1012801D1034840
:105560007047002070470248704700BF0CC1000020
:1055700020C100002DE9F04786B0884615469946BF
:10558000446801F01F07237B47EA4317204604F0D5
:1055900070FF002853D0B5F5001F2AD00DF10C0A7A
:1055A0000026039604964946284604F09FFF8DF88E
:1055B0000C00009601960296CDF804A0A36823FA89
:1055C00008F313F0010F02D1B5F1A07F18D0103409
:1055D0006A463946204605F0E3FE1C4B984231D11D
:1055E00001223946204605F0FFFE002006B0BDE846
:1055F000F087394604F1100005F0FAFE0020F5E7C7
:105600003846FFF793FF0028E1D104F110050DF1B2
:1056100017023946284605F0CFFE0D4B984203D0BD
:105620000DF117030493D2E70DF11701284605F099
:10563000D7FE064B9842F3D06FF00B00D6E76FF021
:105640008500D3E76FF01500D0E700BF0000AD0B79
:105650000400AD0BF0B589B00F461446456801F063
:105660001F062B7B46EA4316104604F007FF8DF811
:105670001E0040F206332340B3F5837F54D016D882
:10568000062B4DD006D9B3F5807F0DD101238DF8BF
:105690001D3024E003B3022B03D104238DF81D3009
:1056A0001DE06FF0150039E06FF0150036E040F2B4
:1056B000022293423CD0B3F5407F03D103238DF8FF
:1056C0001D300CE0B3F5007F03D102238DF81D30AF
:1056D00005E06FF0150021E000238DF81D3014F473
:1056E000002F29D06A680123BB40C2F8083528463C
:1056F00004F0BFFE48B310350DF11F0231462846B5
:1057000005F05AFE074614F4403F37D1314628468B
:1057100005F05EFE3C4B9F426ED0002009B0F0BD0C
:1057200006238DF81D30DAE707238DF81D30D6E704
:1057300005238DF81D30D2E714F4802FD7D06A6886
:105740000123BB40C2F80C35D1E7C4F340438DF8C8
:10575000083014F4803F0CBF012300238DF8103073
:10576000002401940DF11D0300930DF11E0304AA02
:1057700002A93046FFF77CFE2046CFE702AA0023AD
:1057800002930393049305930693059204AA31466A
:10579000284605F005FE1C4B98421DD114F4003F2D
:1057A0001DD09DF81D308DF8103014F4803F0CBFD3
:1057B000012300238DF811309DF81E308DF8123032
:1057C000002304AA3146284605F0EEFD0E4B984210
:1057D000A0D06FF01500A1E76FF015009EE7002341
:1057E0000493059306930DF11E03049304AA314616
:1057F000284605F0D5FDE9E79DF81F10284605F07D
:10580000EBFD00208AE700BF0000AD0B10B5446837
:10581000204604F02EFE08B9002010BD10342046AA
:1058200005F0D2FD08B10020F7E70021204605F081
:10583000C7FD094B98420BD100220849204605F0CC
:10584000B7FD00220521062004F08AF90020E4E7D4
:105850006FF00400E1E700BF0000AD0B25A50000DC
:1058600070B400F01F0C400919D001281AD10E4D58
:105870000CF5E07055F820600C4C344041EA4201D0
:1058800041EA83039DF80C2043EA02239DF810208F
:1058900043EA0243234345F8203070BC70474FF081
:1058A000A045E5E70025E3E700030050F0F8FCFF22
:1058B00000F01F01400907D0012808D1054A012343
:1058C0008B40C2F8083570474FF0A042F7E700223E
:1058D000F5E700BF0003005000F01F01400907D0AA
:1058E000012808D1054A01238B40C2F80C357047C6
:1058F0004FF0A042F7E70022F5E700BF0003005099
:105900002DE9F04F85B0074689460392002421E037
:105910004FF0FF3634E0039BC3F80C654FF00108ED
:105920004146B6F1FF3F13D0B1F1FF3F4BD157F8DD
:105930000A3013F4004F4AD1454600220192CDF8B7
:1059400000B0C3F34123424629463046FFF788FFA3
:105950000134E4B24C453DD24FEA840A57F8243072
:10596000C3F3C725C3F3C322C3F3080615F0080524
:1059700034D11D4911F802B040F2FF129642C7D04F
:105980005B0C032B2DD801A252F823F0175900000D
:105990009D590000AB590000B9590000039BC3F8A2
:1059A0001465A8464FF0FF31BBE7039BC3F80865B9
:1059B0004FF001084146B4E7039BC3F81065A846C1
:1059C0004FF0FF31ADE7304604F001FEAFE74FF096
:1059D0000108B2E7002005B0BDE8F08F6FF01500B8
:1059E000F9E76FF08500F6E7F8C5000043681A682C
:1059F000B1F5164F6FD03AD8B1F5165F6ED00AD90F
:105A0000B1F5E14F75D024D947F6122399422BD135
:105A10004FF4000313E0B1F5966F61D007D9B1F5EB
:105A2000166F63D0B1F5965F10D13C4B07E0B1F52E
:105A3000967F58D0B1F5167F05D14FF41C33C2F8CC
:105A40002435002070476FF0150070476FF0150087
:105A50007047B1F5615F4ED0B1F5964F01D1304B33
:105A6000EDE76FF0150070476FF015007047B1F566
:105A7000613F42D009D9B1F5612F46D01FD9294BDA
:105A8000994248D14FF08053D9E7B1F5963F37D0CE
:105A900005D9B1F5E13F0FD14FF0EB73CFE74DF6EC
:105AA000C02399422ED0B1F5614F02D14FF46B0360
:105AB000C5E76FF0150070476FF0150070471A4B7F
:105AC000994225D0B1F5E12F02D14FF0E863B6E756
:105AD0006FF0150070474FF41D03B0E7134BAEE7AE
:105AE0004FF49E23ABE74FF4A033A8E74FF41D23F8
:105AF000A5E70F4BA3E70F4BA1E74FF06C739EE7B1
:105B00000D4B9CE74FF4650399E74FF0706396E700
:105B10004FF0806393E76FF01500704700B01300FB
:105B200000A04E0040420F0090D00300005027001C
:105B300000C0750000F03A0000903A01F8B5054643
:105B40000E46076905F0C3FE10B9114B1B787BB9EF
:105B5000EFF31184202383F31288BFF36F8F28465D
:105B600004F0FEFD40B984F31188BFF36F8FEFE7B7
:105B7000284604F024FF04467B691E7001227969DF
:105B8000284604F007FE84F31188BFF36F8FF8BD39
:105B90002C1D002038B505460C4601F11C0001F013
:105BA00019F90A4B98420DD105F10C0205F59071D7
:105BB000207F00F0DBFB237F0120984000F0D0FB2A
:105BC000002038BD6FF00400FBE700BF0000AD0B04
:105BD00021F07F4100F5A870014B43F82010704779
:105BE000001001404FF480338340024AC2F844332E
:105BF000704700BF001001404FF480338340024AD9
:105C0000C2F84833704700BF00100140014BD3F881
:105C100004057047001001402DE9F8430546894608
:105C20009046FFF7E9FF284604F0C3FF4E460327DE
:105C300010E0FFF7EBFF0446494604F0A9FFB0F57A
:105C4000000F26D9284604F0B4FFB8F1000F22D186
:105C50003E19013731462846FFF7BAFF2846FFF7BD
:105C6000C1FFFFF7D3FF0446C11C304604F090FF8C
:105C70000A4B98420AD9284604F08EFF0028D8D152
:105C8000B8F1000FE4D06FF0150000E00020BDE88F
:105C9000F8830020FBE76FF01500F8E7FDFF7F00B9
:105CA000034B044AC3F80823C3F84823704700BFD6
:105CB0000010014003000F0010B5012383406FEA7C
:105CC000030C0E4ABFF35B8F52E8001F01EA0C0E73
:105CD00042E800E4002CF7D1BFF35B8F4FF4803231
:105CE00082400748C0F80823BFF35F8FBFF36F8F70
:105CF0000B4214BF0120002010BD00BFEC1A002091
:105D0000001001404FF480338340144AD2F804233A
:105D1000134201D10020704710B50446012383408F
:105D2000DB430F49BFF35B8F51E8002F02EA03000A
:105D300041E8000CBCF1000FF6D1BFF35B8F22FAF3
:105D400004F313F0010F03D1204604F025FF18B12E
:105D5000204604F02EFF012010BD00BF00100140BE
:105D6000E81A002001B9704701238340114ABFF3AC
:105D70005B8F52E800CF4CEA030C42E800C10029D7
:105D8000F7D1BFF35B8F4FF4803383400A4AC2F8E8
:105D90000433BFF35B8F094B1B68BFF35B8FC340BA
:105DA00013F0010FDFD0064B4FF40032C3F800218F
:105DB000D9E700BFEC1A002000100140E81A0020CB
:105DC00000E100E038B514461046194604F0FDFE27
:105DD00002460D490B68E01A1B184C6844F1000498
:105DE0000B604C60A2F50013B3F5400F09D2074BCE
:105DF0001B68190A1B06D41841F10005044BC3E9BE
:105E0000004502F0EDF938BD88050020F01A0020A9
:105E10009005002038B50D4B1C68250A2406BFF3F9
:105E20005F8FFFF7F3FE0346001945F10001B3F55C
:105E3000801F0AD2064BD3E90023904271EB030383
:105E400003D210F1807041F1000138BDF01A00203A
:105E5000900500202DE9F041064614461D469DF8A8
:105E600020801046194604F0B0FE0746FFF7D2FF27
:105E7000A04271EB050319D2201A65EB01011D4BFD
:105E8000984271F100012FD21B4B03EB0613D3E9AB
:105E90000223AB4208BFA24201D1002018E04246D3
:105EA00039463046FFF7B8FE90B11BE0B8F1000F5D
:105EB0001DD10123B340114ABFF35B8F52E8000F9D
:105EC000184342E800010029F8D1BFF35B8F00209E
:105ED000094B320103EB0616C6E9024506999950B3
:105EE000079B7360BDE8F0816FF01500FAE76FF073
:105EF0001500F7E70100800078050020E81A00206F
:105F000030B585B0FFF7CCFE00231E4AC2F8083535
:105F1000002B25DD1B4C0225C4F804531A4B4FF40B
:105F20000032C3F8802100220121112003F018FE65
:105F3000112003F00BFE0123A3602360134A1360BA
:105F4000002402940194124B0093124A002320462D
:105F500004F04BFE2846FFF733FA204605B030BD6B
:105F60000D4A02EB03124FF0FF304FF0FF31C2E950
:105F700002014FF480329A400249C1F804230133F0
:105F8000C6E700BF0010014000E100E0EC1A00206D
:105F9000C55D0000FFFF7F00780500202DE9F04778
:105FA00082B00446FFF7AEFE10B902B0BDE8F0873C
:105FB000FFF730FF82460D4604F00AFE0646154BF9
:105FC00003EB0413D3E90289C24575EB09050BD233
:105FD0000025304604F004FE002DE6D0009742462E
:105FE0004B462046A847E0E70A4A230102EB04118A
:105FF000D5584F680020D0504FF0FF324FF0FF339C
:10600000C1E902232046FFF7F7FD204604F0D1FD49
:10601000DFE700BF7805002010B50D4BD3F804333F
:1060200013F0020F03D10024002C0BDD10BD022160
:10603000074804F077FD0028F5D0064A13680133BD
:106040001360F0E72046FFF7A9FF0134ECE700BF3B
:1060500000100140F01A002010B584B0B0F1FF3FED
:1060600018D001281BDD154B9842A8BF18460446DE
:10607000134B01221A70FFF7CDFE124B1A685B68B2
:10608000801AB0F5000F0CD20444B4F5000F09D308
:106090000A4C07E00A4B00221A70084CEBE7012477
:1060A000E6E7064C00201219029001900649009183
:1060B00043F1000304F099FD04B010BDFFFF7F0021
:1060C000291D002088050020C55D000008B5FFF7E8
:1060D000A1FE024B1B68C01A08BD00BF8805002046
:1060E000BFF34F8F0549CA6802F4E062044B1343C3
:1060F000CB60BFF34F8F00BFFDE700BF00ED00E0B6
:106100000400FA05024BD3F80034002BFAD0704794
:1061100000E0014008B5034BC3F80405FFF7F2FFA8
:1061200008BD00BF00E0014038B504F086FD40B175
:106130004FF080430022C3F80C21C3F81021C3F8AC
:10614000382504F084FD002846D04FF08052D2F864
:1061500004145B4BC3F82015D2F80814C3F82415B7
:10616000D2F80C14C3F82815D2F81014C3F82C1563
:10617000D2F81414C3F83015D2F81814C3F8341533
:10618000D2F81C14C3F84015D2F82014C3F84415F3
:10619000D2F82414C3F84815D2F82814C3F84C15C3
:1061A000D2F82C14C3F85015D2F83014C3F8541593
:1061B000D2F83414C3F86015D2F83814C3F8641553
:1061C000D2F83C14C3F86815D2F84014C3F86C1523
:1061D000D2F84424C3F8702504F043FD18B1394BBC
:1061E000394AC3F88C2604F04FFD18B1374BFB2217
:1061F000C3F8182504F05BFD70B14FF08041D1F871
:10620000E43E23F00F034FF08052D2F8582202F000
:106210000F021343C1F8E43E04F05CFD20B12C4BA7
:106220004FF40072C3F8402604F067FD60B14FF0F0
:106230008043D3F8003413F0010F05D04FF08043B2
:106240006FF00102C3F8002404F071FD4FF0102339
:10625000D3F80C3213F0010F0CD14FF01023D3F808
:106260000032002B18DB4FF01023D3F80432002B40
:1062700012DB38BD0120FFF74DFF4FF01022D2F89E
:106280000C3223F00103C2F80C32FFF73BFF002071
:10629000FFF740FFFFF724FF0120FFF73BFF4FF020
:1062A00010241225C4F80052FFF72CFFC4F8045242
:1062B000FFF728FF0020FFF72DFFFFF711FF00BFBA
:1062C00000C00040005000404881030000F0004042
:1062D0000090024010B50468CCB1B4FA84F3C3F165
:1062E0001F03DBB201229A4024EA0202BFF35B8F54
:1062F00050E800CFA44504D140E8002EBEF1000FC5
:10630000F6D1BFF35B8FE6D10B70024810BD024897
:10631000FCE700BF0000AD0B0200AD0B0368CB40F3
:1063200013F0010F15D100B5026801238B40134310
:10633000BFF35B8F50E800CF944504D140E8003EA6
:10634000BEF1000FF6D1BFF35B8FEDD102485DF8CF
:1063500004FB0248704700BF0000AD0B0400AD0B0A
:10636000014BC3F80405704700F00140034BA23015
:1063700043F8301003EBC0035A60704700F001404F
:1063800070B582B0064618B1012816D002B070BDB3
:106390004FF080430222C3F808230122DA60002272
:1063A000C3F80421D3F8043101238DF807309E424D
:1063B0000FD0002542F2107413E04FF08043012209
:1063C000C3F808235A600022C3F80021D3F8003133
:1063D000EAE70DF10705EDE7012004F0B8FC013C08
:1063E0000CD02A4631464FF0804004F0B4FC28B16E
:1063F000002DF1D09DF80730012BEDD0012EC5D135
:10640000014B00225A71C1E7F41A0020064B1B7998
:106410003BB9054B186001221A7100225A710348DA
:1064200070470348704700BFF41A00200000AD0B0E
:106430000C00AD0B08B5074B1B680BB104F0A9FCB1
:1064400004F0A5FC4FF08043C3F81805024B01226D
:106450001A7008BDF41A00202A1D002000B583B070
:1064600020B1012849D003B05DF804FB4FF0804310
:10647000D3F81824D3F8183403F00303019312F46B
:10648000803F13D14FF08043D3F8143413F0010F41
:1064900010D104F07CFC0190019A4FF08043C3F8C6
:1064A000182508224FF4827302202AE001A804F084
:1064B00079FCF1E74FF08043D3F81C3403F0030379
:1064C000019301A804F06EFC0028E5D0194B1B686D
:1064D0002BB14FF080430222C3F80423C3E74FF0EF
:1064E0008043D3F80431002BF9D04FF080430022D1
:1064F000C3F80421D3F80431B5E700224FF48073C8
:10650000012003F1804300211960196802F18042E3
:1065100001211160074A126822B14FF08043C3F88D
:106520000403A0E71A68002AFCD000221A601B6846
:1065300099E700BFF41A002008B54FF08043D3F864
:1065400000318BB14FF080430022C3F80021D3F813
:1065500000210122C3F80823154B5B7923B9144BA2
:106560005A711B68002098474FF08043D3F80431DC
:106570009BB14FF080430022C3F80421D3F80421DB
:10658000D3F81824D3F8183413F0030F06D14FF0C2
:1065900080430122C3F818259A6008BD4FF080435C
:1065A0000222C3F80823024B1B6801209847F4E736
:1065B000F41A002070B400F01F0C400919D0012813
:1065C0001AD10E4D0CF5E07055F820600C4C34409B
:1065D00041EA420141EA83039DF80C2043EA022389
:1065E0009DF8102043EA0243234345F8203070BC55
:1065F00070474FF0A045E5E70025E3E700030050B2
:10660000F0F8FCFFF0B51C46059F069E00F01F0C3D
:10661000400936D0012837D1284D0CF5E07355F8E4
:10662000233099B301209AB34FF0020E40EA0E00D6
:106630008CB34FF00C0E40EA0E007FB34FF4E06EC7
:1066400040EA0E006EB34FF4403E40EA0E0023EAEB
:10665000000049B30B784AB31278520013433CB39D
:106660002278920013432FB33A78120213431EB3D9
:1066700032781204134303430CF5E07C45F82C30C8
:10668000F0BD4FF0A045C8E70025C6E70020CAE7E7
:106690004FF0000ECAE74FF0000ECCE74FF0000EAF
:1066A000CEE74FF0000ED0E70023D4E70022D5E775
:1066B0000022D7E70022D9E70022DBE700030050E1
:1066C00000F01F02400908D0012809D1054BD3F87A
:1066D0001005D04000F0010070474FF0A043F6E7EE
:1066E0000023F4E70003005000F01F03400909D025
:1066F00001280AD1064A03F5E07352F82300C0F3DB
:10670000014070474FF0A042F5E70022F3E700BFD9
:106710000003005000B583B084468E460D4B93E8CD
:10672000030002AB03E9030063460BE002A901EB9F
:10673000830151F8081CD1F8200542F8040BC1F878
:10674000200501330CEB0E009842EFD803B05DF842
:1067500004FB00BF58C3000000F01F01400907D030
:10676000012808D1054A01238B40C2F82035704723
:106770004FF0A042F7E70022F5E700BF000300500A
:106780004309034AD35C00F01F001844C0B27047AD
:1067900080C6000000487047700100202DE9F041DC
:1067A00084B005460C4616461F460846FFF7E8FF2C
:1067B000804656B32146284604F0ECFB28B121461A
:1067C000284604F0A7FB002841D12146284604F0C2
:1067D000B0FB10B17378012B39D001238DF80F3045
:1067E000002301930096B31C721C0DF10F0120468B
:1067F000FFF708FF2879FFF7CDFF08F1080230F80E
:10680000123043F0030320F81230002F39D0214614
:10681000284604F0BFFB002835D13E782B6806F5EA
:10682000A272002143F822102879FFF7B3FF08F184
:10683000080230F8123023F02003DB04DB0C20F8D0
:1068400012307B782BB9114804B0BDE8F0811048B4
:10685000FAE7BA78009222463146286804F0D5FA61
:106860002879FFF797FF024608F1080032F8103048
:106870007603B6B2334343F0200322F810300348C6
:10688000E2E70248E0E70248DEE700BF0000AD0BA8
:106890000400AD0B70B506460D46144604F03AFBF5
:1068A00068B13079FFF776FF06462846FFF768FFA4
:1068B000083036F810305B0B2370024870BD024878
:1068C000FCE700BF0000AD0B0400AD0B30B583B09A
:1068D00005460191002400E00134012C18D80E4B2C
:1068E0001B5D03F0070202A901EBD30313F8043C7C
:1068F000D34013F0010FEFD005EB840201212046B5
:10690000FFF708FF55F82430002BE5D0012000E008
:10691000002003B030BD00BF90C600002DE9F0415B
:1069200082B00546884616461F4604F07FFCAEB38B
:106930003A463146284604F089FB041E20DB2879BC
:10694000FFF728FF40F834602879FFF723FF00EBBA
:10695000C40047602879FFF71DFF05464046FFF752
:106960000FFF083035F81030E4B26402A4B22343BC
:1069700043F4807325F81030094802B0BDE8F08177
:106980002879FFF707FF0DF107017830FFF7A2FC28
:10699000034B9842F1D19DF80740D0E70048ECE75F
:1069A0000000AD0B2DE9F04385B004460D461746B7
:1069B0000846FFF7E5FE0646D7F80080B8F1000F5D
:1069C00028D02946204604F0D4FA00284FD10023CD
:1069D0008DF80E308DF80F300193009343460DF182
:1069E0000F020DF10E012846FFF70CFE2079FFF78C
:1069F000D1FE06F1080830F8183023F0020320F821
:106A000018302079FFF7C6FE30F8183043F0010344
:106A100020F818307B68F3B193F80080D3F8049025
:106A20002946204604F096FA18B3B9F1000F65D153
:106A30002079FFF7AFFE083630F8163023F01C033C
:106A400020F816302079FFF7A5FE30F8163043EA1B
:106A5000880320F81630BA68002A53D053681268A9
:106A600029462046FFF75AFF05B0BDE8F0832648C7
:106A7000FAE72079FFF78EFE06F1080230F81230AF
:106A800023F02003DB04DB0C20F81230B9F1000FF7
:106A9000CED0B8F1030F33D87B685B6893F80090D1
:106AA000B8F1000F06D1236809F5A279002243F856
:106AB0002920BDE7404604F075FA0346216809F530
:106AC000A27C51F82C2022F0030241F82C202A4607
:106AD0004946206804F080F92079FFF75BFE06F153
